:100000000C9456030C949D030C949D030C949D0337
:100010000C949D030C949D030C949D030C949D03E0
:100020000C949D030C949D030C941E270C94F027B4
:100030000C94D41E0C949D030C949D030C949D036E
:100040000C949D030C949D030C949D030C949D03B0
:100050000C949D030C943C1F0C949D030C949D03E5
:100060000C949D030C949D030C949D030C949D0390
:100070000C949D030C949D030C949D030C949D0380
:100080000C949D030C949D030C949D030C949D0370
:100090000C949D030C949D030C949D030C949D0360
:1000A0000C949D030C949D030C949D03F205F405A0
:1000B000FF05F605F805FA05FC05FE050106030631
:1000C00005061006070609060B060D060F061206A2
:1000D0005F145F1491149114CF14EF1484168416D6
:1000E00031158416DE15DE155016591684167D1648
:1000F000EB15EB15EB15EB15EB15EB15EB15EB1500
:10010000EB15EB15EB15EB15EB15EB15EB15EB15EF
:10011000FC150A1611161816221613171317251791
:1001200025171C1725172517251713171317211720
:100130002517251721175D288428762984287629F4
:10014000D028F32876294929582907634236B79BD6
:10015000D8A71A39685618AEBAAB558C1D3CB7CC27
:100160005763BD6DEDFD753EF6177231BF0000009F
:10017000803F05A84CCDB2D44EB93836A9020C50F8
:10018000B9918688083CA6AAAA2ABE000000803F32
:1001900029001E001F00200021002200230024004F
:1001A0002500260027002D002E002A002A00506876
:1001B0002B00000014001A000800150017001C0096
:1001C00018000C00120013002F00300031004F08FF
:1001D0003900000004001600070009000A000B00A7
:1001E0000D000E000F0033003400280000004B000B
:1001F000E100E1001D001B000600190005001100D0
:1002000010003600370038000000E50052004E00B4
:10021000E000E2000000E3002C0000002C000000E1
:100220002C00000001540154E642500051004F00E0
:1002300029001E001F0020002100220023002400AE
:100240002500260027002D002E002A002A004A0043
:100250002B00000014001A000800150017001C00F5
:1002600018000C00120013002F00300031004D0068
:100270003900000004001600070009000A000B0006
:100280000D000E000F0033003400280000004B006A
:10029000E100E1001D001B0006001900050011002F
:1002A00010003600370038000000E50052004E0014
:1002B000E000E3000000E2002C0000002C00000041
:1002C0002C00000000540054E643500051004F0041
:1002D000350035024400000000000000000000006E
:1002E000BC00BB007F00810080004C004C00C25C61
:1002F00000000000000000000000000000000000FE
:1003000000000000000000000000000000000000ED
:1003100000000000000000000000000000000000DD
:1003200000000000000000000000000000000000CD
:10033000000000007A007B007C007D0000000000CF
:10034000000000000000000000000000C95C000088
:10035000000000000000000000000000000000009D
:1003600000000000000000000000C35CCA5CC45C28
:1003700035003A003B003C003D003E003F0040009D
:10038000410042004300440045004C004C00C25C68
:10039000000000000000000000000000000000005D
:1003A000000000000000000000000000000000004D
:1003B000000000000000000000000000000000003D
:1003C000000000000000000000000000000000002D
:1003D000000000007A007B007D007E00000000002D
:1003E000000000000000000000000000C95C0000E8
:1003F00000000000000000000000000000000000FD
:1004000000000000000000000000C35CCA5CC45C87
:1004100000047F3F1F643214643214783C1E1E14A3
:100420000A056801F000B40078005A0000000000DE
:1004300000010101010101010101020202020202A7
:10044000020202030303030303030304040404047A
:10045000040505050505060606060607070707083D
:100460000808080909090A0A0A0A0B0B0B0C0C0CEC
:100470000D0D0D0E0E0F0F0F101011111112121382
:10048000131414151516161717181819191A1A1BFC
:100490001C1C1D1D1E1F1F20202122222324252558
:1004A00026272728292A2B2B2C2D2E2F2F3031328F
:1004B00033343536363738393A3B3C3D3E3F4041A0
:1004C000424344464748494A4B4C4D4F5051525382
:1004D000555657585A5B5C5E5F6062636466676935
:1004E0006A6C6D6E707173747678797B7C7E8081B6
:1004F000838486888A8B8D8F91929496989A9B9DFF
:100500009FA1A3A5A7A9ABADAFB1B3B5B7B9BBBD0B
:10051000BFC1C4C6C8CACCCFD1D3D6D8DADCDFE1DC
:10052000E4E6E8EBEDF0F2F5F7FAFCFF0403300047
:1005300000001C034B004500590043004C004100E3
:1005400043004B00360035002D00560031000000FE
:10055000080364006F007500000004030904090229
:100560003B00020100A0FA090400000103010100A0
:100570000921110100012240000705810308000A3A
:1005800009040100010300000009211101000122FA
:10059000C0000705820320000A12011001000000BC
:1005A00008EDFE606002000102030105010902A1DD
:1005B0000185020901A10005091901290515002578
:1005C00001950575018102950175038101050109F8
:1005D0003009311581257F95027508810609381586
:1005E00081257F950175088106050C0A3802158161
:1005F000257F950175088106C0C005010980A1010C
:1006000085031601002603001A81002A8300751055
:1006100095018100C0050C0901A1018504160100A6
:10062000269C021A01002A9C02751095018100C0C7
:1006300005010906A1018505050719E029E715004F
:1006400025019508750181020508190129059505FF
:10065000750191029501750391010507190029EFB4
:100660001500250195F075018102C005010906A15B
:1006700001050719E029E715002501950875018195
:10068000029501750881010508190129059505756F
:100690000191029501750391010507190029FF15C4
:1006A0000026FF00950675088100C00011241FBEBA
:1006B000CFEFDAE0DEBFCDBF04B603FE27C08091E6
:1006C000A2029091A302A091A402B091A50287304A
:1006D000904BA740B04BD1F41092A2021092A3020B
:1006E0001092A4021092A50214BE84B7877F84BF23
:1006F0000FB6F894A895809160008861809360009F
:10070000109260000FBEE0E0F8E3099511E0A0E070
:10071000B1E0E8E8FBE502C005900D92A633B10711
:10072000D9F722E0A6E3B1E001C01D92A23AB207D8
:10073000E1F70E9440240C94C22D0C9400000C940C
:1007400076090C9477090C94AF0381FF02C0229ABA
:1007500001C022982A980C94290481E0089581E030
:1007600008950C94A103CF92DF92EF92FF92843010
:1007700030F4811105C0909180009F7D04C083E01A
:1007800090918000906290938000282F30E0AFEF2E
:10079000BFEF0E94532D23E030E040E050E00E9484
:1007A0002B2D2C3784E138074105510530F4C90160
:1007B00069E070E00E94032D29C0DA01C9018A5066
:1007C000974DAF4FBF4F6627782F892F9A2F25EF70
:1007D00038E241E050E00E942B2D69017A01CA0104
:1007E000B9010E94F32C9B01AC01C701B6010E9424
:1007F000F32CBB27A92F982F872F009721E0A20762
:10080000B10511F0BC0102C06FEF7FEF70938B0058
:1008100060938A00FF90EF90DF90CF900895269A22
:100820002E9882E28093800089E1809381008FEF8F
:100830009FEF90938700809386000C94C0210E94C4
:10084000681D811102C00E94EB1D0E940F040C94D0
:100850009F0308950C94A50308950E9403170E9416
:100860002C042FEF84E39CE0215080409040E1F77E
:1008700000C000000C94621FFF920F931F93CF9350
:10088000DF938C01FC01C081D181809184018111B1
:1008900013C08281882349F0CE010E94381CF82EB3
:1008A000682FCE010E94DD1B04C0CE010E940C1CEB
:1008B000F82EBE018F2D04C0CE010E94381CBE014F
:1008C0000E94C606EC01B8010E94A303882309F424
:1008D00052C2CC3CFCE5DF0709F4E1C0E8F5C43CBA
:1008E0009CE5D90709F4A5C0F8F4C531FCE5DF079C
:1008F00078F4C2308CE5D80708F052C1C1159CE5E8
:10090000D90709F467C0C130DC4509F46BC026C2C1
:10091000C23CFCE5DF0709F478C008F07EC0C631B0
:10092000DC4509F4F4C11AC2F8018281C83CFCE537
:10093000DF0709F49CC040F4C63CECE5DE0709F48F
:100940008AC008F482C08DC0CA3C9CE5D90709F46E
:100950009AC008F492C09DC0C43DFCE5DF0709F4CD
:10096000F8C0C0F4F8018281C03DFCE5DF0709F45E
:10097000BFC040F4CE3CECE5DE0709F49DC008F4AE
:1009800096C0A8C0C23D9CE5D90709F4CFC008F4C1
:10099000BFC0DAC0C93DFCE5DF0709F49DC160F4C2
:1009A000C73D9CE5D90709F44DC108F06EC1C53DAE
:1009B000DC4509F4DEC0D2C1CD3D8CE5D80709F491
:1009C000E6C0CE3D9CE5D907C1F0CC3DDC4509F041
:1009D000C5C1D6C0F8018281882309F4CCC10E9428
:1009E0002D04C9C1F8018281882309F4C4C1809112
:1009F0001C02816080931C02BEC1F80182818823A1
:100A000009F4B9C10E94EB1DB6C1F80182818823A7
:100A100009F4B1C10E94350EAEC1F801828188236C
:100A200009F4A9C10E94B81C827261F00E94D10D24
:100A3000A2C1F8018281882309F49DC10E94B81CDB
:100A40008272A1F30E94C30D96C1882309F493C159
:100A50000E94C60C90C1882309F48DC10E94EA0C43
:100A60008AC1882309F487C10E940A0D84C18823A2
:100A700009F481C10E942A0D7EC1882309F47BC13B
:100A80000E944A0D78C1882309F475C10E946A0D3D
:100A900072C1882309F46FC10E94820B6CC1F801F6
:100AA0008281882309F467C10E94970B64C188235F
:100AB00009F461C181E029C0882309F45CC10E9466
:100AC000790B823028F00E94790B853008F4BACF78
:100AD00082E01BC0882309F44EC10E94790B863046
:100AE00028F00E94790B883008F4ACCF86E00DC066
:100AF000882309F440C10E94790B893028F00E94B4
:100B0000790B8E3008F49ECF89E00E94D40D33C15A
:100B1000882309F430C10E94790B8F3028F00E949D
:100B2000790B843108F48ECF8FE0EFCF882309F45E
:100B300022C10E94790B853128F00E94790B873100
:100B400008F480CF85E1E1CF882309F414C188E15E
:100B5000DCCFF8018281882309F40DC10E94790B52
:100B6000893128F00E94790B823208F46BCF89E139
:100B7000CCCFF8018281882309F4FDC083E2C5CF80
:100B8000F8018281882309F4F6C080E006C0F801EC
:100B90008281882309F4EFC082E00E94E124EBC047
:100BA000F8018281882309F4DEC00E94681D81114A
:100BB00002C00E94EB1D0E947B1D90E09093930267
:100BC00080939202FE01E350FC45E231F10530F4DE
:100BD000EA5AFF4F809192020C944D2D809192021F
:100BE000816027C0826025C0846023C0806121C0ED
:100BF00080621FC080641DC080681BC084608860E4
:100C000018C08E7F16C08D7F14C08B7F12C08F7E60
:100C100010C08F7D0EC08F7B0CC08F770AC08B7F7A
:100C2000877F07C087FB222720F991E0922790FB5E
:100C300087F980939202809192020E947F1D0E9408
:100C4000031799C0F8018281882351F010923B016B
:100C50000E94061F909338018093370182E022C0E2
:100C600080913B0181110FC0809137019091380133
:100C70000E94121F883C910530F486E20E941D13E9
:100C800086E20E94E71382E024C0F8018281882373
:100C900061F010923C010E94061F90933A018093EC
:100CA000390180E20E941B1466C080913C018111D1
:100CB0000FC08091390190913A010E94121F883C27
:100CC000910530F487E20E941D1387E20E94E7132A
:100CD00080E20E9422144FC0F80182818111D9CF95
:100CE00080913C018111F4CF8091390190913A01BA
:100CF0000E94121F883C910558F780E20E9422143E
:100D000088E20E941D1388E20E94E71334C00E940B
:100D1000B81C282FF801828140910D0150910E01DD
:100D2000882379F02A7A91E009F490E090933601D3
:100D3000911102C069E201C065E3CA010E94521E1E
:100D40000AC080913601811102C069E201C065E3E9
:100D5000CA010E945D1E0E94041D0DC081E08093A7
:100D60003B0180933C01C801DF91CF911F910F910E
:100D7000FF900C94AD0380E0DF91CF911F910F9114
:100D8000FF90089580E090E008950895E72FF0E047
:100D900095E0899FE00DF11D112484E0EE0FFF1F07
:100DA0008A95E1F7E60FF11DEE0FFF1FE057FE4FAA
:100DB000859194910895880F991FFC01E05FFB4F86
:100DC000859194910895CF93DF930E94C6060E9467
:100DD000D608EC01811521E5920708F042C0811583
:100DE00060E5960708F031C1883E910500F5803E28
:100DF000910508F0D7C1883A910570F4853A9105BC
:100E000008F0A6C08130910509F4CCC108F47DC179
:100E1000049708F0C7C179C18F3B910508F4A3C0BE
:100E2000803C910508F471C1805C9109FDC0C11539
:100E300080E3D80780F4C11590E2D90708F0F2C02A
:100E4000C03FD10508F461C1CF3FD10511F008F0D2
:100E5000A9C1D065A7C1C11520E4D20708F0F2C02E
:100E6000E7C0811569E5960760F5C11588E5D807E3
:100E700008F037C1C11594E5D90778F4C11523E509
:100E8000D20708F013C1C11562E5D60708F0F8C013
:100E9000DC2FCC27C16FD06A85C1C11585E5D80785
:100EA00008F41AC1C11596E5D90708F02EC18C2F98
:100EB0000E9453098F71C82FD0E0DC2FCC27D0625D
:100EC00071C18D3B2CE5920709F416C1F0F4CB3BC0
:100ED0008CE5D80709F40AC108F00BC1C1152AE551
:100EE000D20708F012C18C2F8F700E94530994E032
:100EF000D695C7959A95E1F7CF70D0E0DC2FCC2737
:100F0000D06A8F70806EC82B4DC1803C9C4509F41F
:100F1000F9C0C13C8CE5D80760F4CE3B9CE5D9070D
:100F200009F4EDC0CF3BDC4509F0EFC0C0E0D2EDE5
:100F300039C1CE0190568115904208F0E6C08D2F40
:100F40008F710E945309DD27D0628F71D82B2AC17F
:100F5000853A910509F4DCC0863A910509F0DBC0B9
:100F6000C2E8D0E41FC1883A910509F4D7C0893A94
:100F7000910509F4D6C08A3A910509F4D5C08B3A97
:100F8000910509F4D4C08C3A910509F4D3C08B3B88
:100F9000910509F4D2C08C3B910509F4D1C08D3A7A
:100FA000910509F4D0C0803B910509F4CFC08E3A79
:100FB000910509F4CEC08F3A910509F4CDC0813B6B
:100FC000910509F4CCC0823B910509F4CBC0833B69
:100FD000910509F4CAC0843B910509F4C9C0853B59
:100FE000910509F4C8C0863B910509F4C7C0873B49
:100FF000910509F4C6C0883B910509F4C5C0893B39
:10100000910509F4C4C08D3B910509F4C3C08E3B22
:10101000910509F4C2C08A3B910509F4C1C0C0E042
:10102000D4E4C0C0CE019F700E94DB06EC01BAC0C0
:10103000CE019927D3FF03C0EC01D86CB3C0EC01FB
:10104000D06CB0C0DF70D06AADC0837021E030E0FA
:1010500002C0220F331F8A95E2F73C68CE0174E08C
:10106000969587957A95E1F78370382BCF70C69562
:10107000C69580E2C89FE0011124C22BD32B92C0F9
:101080004C2F4695469590E2499FA0011124C370CC
:10109000DD2721E030E0C90102C0880F991FCA9501
:1010A000E2F7EC01C42BD52BDC687CC04C2F4695B5
:1010B000469580E2489FA0011124C370DD2721E0FE
:1010C00030E0C90102C0880F991FCA95E2F7EC0110
:1010D000C42BD52BDA6866C0DC2FCC27C46FD06A4E
:1010E00061C0DC2FCC27C06FD06A5CC0C0E0D4EDFB
:1010F00059C0C0E0D5ED56C0C0E0D1ED53C0C0E04E
:10110000D0ED50C0C0E0D3ED4DC0C0E0D0E04AC04B
:10111000C1E8D0E447C0C3E8D0E444C0C2EED4E4A0
:1011200041C0C9EED4E43EC0CAEED4E43BC0C5EB36
:10113000D4E438C0C6EBD4E435C0C3EBD4E432C049
:10114000C4EBD4E42FC0C7EBD4E42CC0CCECD4E483
:1011500029C0CDECD4E426C0C3E8D5E423C0CAE856
:10116000D5E420C0C2E9D5E41DC0C4E9D5E41AC065
:10117000C1E2D6E417C0C3E2D6E414C0C4E2D6E4A8
:1011800011C0C5E2D6E40EC0C6E2D6E40BC0C7E289
:10119000D6E408C0CFE6D4E405C0C0E7D4E402C07A
:1011A000CAE2D6E4CE01DF91CF910895823891054D
:1011B00049F1B0F48133910509F458C048F48932FB
:1011C000910509F44EC08A32910509F454C008957E
:1011D0008533910509F440C08933910599F008954C
:1011E000833E910529F138F4803E910591F0823ECD
:1011F0009105A1F00895863E9105F9F0873E91058D
:1012000031F108952091920220FD3AC021FD38C0AD
:1012100008958091920280FD35C032C08091920283
:1012200082FF32C08091920284FD30C083EE39C0CB
:101230008091920282FD28C0F5CF8091920283FFB7
:1012400027C08091920284FD21C087EE2AC0809140
:10125000920283FD1DC0F5CF8091920285FD1AC0D8
:101260001BC08091920285FD17C014C0809192022C
:1012700086FD14C015C08091920286FD11C00EC07B
:1012800080EE0FC089E30DC082EE0BC080E009C084
:1012900086EE07C089E205C085E303C08AE201C08B
:1012A00081E390E008959091920292FF0DC0282F63
:1012B0002871283019F4877F846006C0282F247194
:1012C000243011F48B7F886093FF0DC0282F287184
:1012D000283119F4877E846106C0282F24712431B7
:1012E00011F48B7E886194FD877E0895089508959A
:1012F000E0E3F1E041E050E025E02E0F9191A92FCD
:10130000A295AF70B0E091963C9191979F70BA0111
:1013100002C0660F771F9A95E2F7CB018095832371
:1013200091968C932E13EACFA0E2B1E041E050E019
:1013300020E12A0F8D91E82FE295EF70F0E031A1C6
:101340008F70BA0102C0660F771F8A95E2F7CB0152
:10135000962F9095932391A392A1892B82A32A1370
:10136000E9CFE7E4F1E0ADE3B1E0119211921D9213
:101370001D9271E0E135F707C1F785E00E94640A2C
:101380000C941F044F925F927F928F929F92AF9224
:10139000BF92CF92DF92EF92FF920F931F93CF9362
:1013A000DF9320E3422E21E0522EA7E4B1E020E0BB
:1013B00001E010E05D018D909C90119711961C92B8
:1013C0001E92E20189912E01E82FE295EF70F0E084
:1013D00031A18F70A80102C0440F551F8A95E2F712
:1013E000CA01342B31A342A1382F3095432342A3A5
:1013F00050EA5A95F1F790E2C92E91E0D92E40E0DB
:1014000050E0E60179906E01672D62956F7070E093
:10141000EB01E8A06D917C911197F12CD72DDF7035
:1014200002C0F594E794DA95E2F7E0FC08C0780191
:10143000042E02C0EE0CFF1C0A94E2F702C0E12C5D
:10144000F12C6E297F2911967C936E934F5F5F4F2D
:1014500040315105B1F691A1392331A392A1892BD5
:1014600082A3129681E0F501408151818416950690
:1014700009F480E0282BF1E0A135BF0709F09ACFED
:1014800045E06DE371E087E491E00E94650A0E9407
:10149000B10381E0DF91CF911F910F91FF90EF9009
:1014A000DF90CF90BF90AF909F908F907F905F9094
:1014B0004F900895E82FF0E0EE0FFF1FE35CFE4F22
:1014C00080819181089508950895FF920F931F934D
:1014D000CF93DF93F82E092F162FD72FC42F222357
:1014E00049F081E0809353010E94061F90935201BE
:1014F00080935101809153018823D9F0809151014B
:10150000909152010E94121F069798F0EF2DF02F34
:10151000A12FBD2F80E090E04C2F50E0841795075D
:1015200034F4219131912D933D930196F7CF109290
:101530005301DF91CF911F910F91FF900895EF928A
:10154000FF920F931F93CF93DF93E901662309F472
:101550004BC0242F30E0EFEFF0E0E61BF109B901BA
:10156000E69F9001E79F300DF69F300D1124232F49
:101570008B01031B11095CE3E52EF12CB7010E94DE
:10158000032DFB01BC01069FC001079F900D169F14
:10159000900D1124B7010E94032DE230F105B1F046
:1015A00040F4309779F0319711F5832F242F461BA3
:1015B00021C0E430F105A1F068F03597C1F4842F23
:1015C000861B18C0832F262F230F14C0862F830F4E
:1015D000E42F03C0E42FE61B842F432F2E2F0AC0D5
:1015E000842F462F430F06C0842F242F03C080E092
:1015F00020E040E0E42FF0E0E45DFB4F4491E22F77
:10160000F0E0E45DFB4F9491E82FF0E0E45DFB4FE8
:10161000E49149839883EA83DF91CF911F910F91E1
:10162000FF90EF90089580914B02282F26952F73FD
:1016300030E02115310519F48178826005C025322A
:10164000310524F08178886480934B0230914B02FD
:10165000432F441F4427441F20914C02522F550F03
:10166000852F842B27FB992790F9893641E0940731
:101670007CF068E671E00E94172D80FB37F930930B
:101680004B0286952078822B90FB87F980934C0241
:10169000089588E090E00C94822DCF93DF9300D0E2
:1016A00000D0CDB7DEB7AB01BC0149835A836B8351
:1016B0007C830E94130B49815A816B817C8188E075
:1016C00090E00F900F900F900F90DF91CF910C94BE
:1016D000A02DEBE4F2E083E0808310924C028FEFC8
:1016E00082838383148260817181828193810C94CF
:1016F0004D0B80914B0280FF03C086958F73089538
:1017000080E0089580914F0290E001968430910529
:1017100014F083E090E080934F0260914B0270914F
:101720004C0280914D0290914E020C944D0B809191
:101730004F0290E0019797FF02C080E090E0843074
:10174000910514F083E090E080934F0260914B028A
:1017500070914C0280914D0290914E020C944D0B71
:1017600080914B0280FF06C064E170E080E592E06A
:101770000C94A11180E090E0FC01E05BFD4F118230
:101780001082128203968C339105B1F7EDCF9091C0
:101790004B0290FF0FC020E030E0F901E05BFD4F0D
:1017A0008183608342832D5F3F4F2C333105A9F73E
:1017B0000C94B00B0895CF93DF9300D01F92CDB758
:1017C000DEB720914B0220FF0AC09E012F5F3F4FE2
:1017D0000E949F0A4B8169818A810E94C70B0F90EA
:1017E0000F900F90DF91CF9108955F926F927F924B
:1017F0008F929F92AF92BF92CF92DF92EF92FF9221
:101800000F931F93CF93DF9300D01F92CDB7DEB716
:101810008C01E62EF42E522E80914B0280FF89C05F
:10182000982F9E77923061F49E012F5F3F4FC80141
:101830000E949F0A4B8169818A810E94C70B59C00F
:10184000E82FE695EF739EE39E0F9F73943018F494
:10185000F0904E024EC09AE39E0F9F73993068F449
:10186000881F8827881F90914C02292F220F022F52
:10187000082B97FB112710F93CC087E28E0F8F735E
:101880008A30B8F5F0E07997E0FD02C021E001C0B0
:101890002FEFEE7FEE5DFB4F8591949164E170E058
:1018A0000E94032D26034001279F900C112458010C
:1018B00088E9A81A8EEFB80A80E5C82E82E0D82EF3
:1018C00098E6692E77247394C501B3010E94032D15
:1018D00096014F2D6E2D0E949F0AA80CB91C83E023
:1018E000C80ED11C8CE8C81682E0D80669F70E94A1
:1018F000B00B80914B0200FB87F980934B02902F35
:10190000969580914C028078892B10FB87F9809303
:101910004C02E0924D02F0924E02552051F060913F
:101920004B0270914C0280914D0290914E020E94A8
:101930004D0B0F900F900F90DF91CF911F910F9152
:10194000FF90EF90DF90CF90BF90AF909F908F90DF
:101950007F906F905F900895282FEBE4F2E09081E4
:10196000991F9927991F30914C02832F880F482F78
:10197000492B37FB552750F9CA01089668E671E0F4
:101980000E94172D438162810C94F50B81E00C9429
:10199000AC0C282F90914B02991F9927991F3091D9
:1019A0004C02832F880F482F492B37FB552750F9BE
:1019B000CA01483051051CF4805A9E4F01C0089757
:1019C00068E671E00E94172D40914E0260914D0231
:1019D0000C94F50B81E00C94C90C60914D02262FFC
:1019E00030E0283F310514F4685F01C06FEF30919B
:1019F0004B02331F3327331F90914C02592F550F41
:101A000097FB992790F9282F40914E02852F832B21
:101A10000C94F50B81E00C94ED0C60914D02262F97
:101A200030E02830310514F0685001C060E030919A
:101A30004B02331F3327331F90914C02592F550F00
:101A400097FB992790F9282F40914E02852F832BE1
:101A50000C94F50B81E00C940D0D40914E02242F57
:101A600030E0283F310514F4485F01C04FEF30915A
:101A70004B02331F3327331F90914C02592F550FC0
:101A800097FB992790F9282F60914D02852F832B82
:101A90000C94F50B81E00C942D0D40914E02242FF7
:101AA00030E02830310514F0485001C040E030915A
:101AB0004B02331F3327331F90914C02592F550F80
:101AC00097FB992790F9282F60914D02852F832B42
:101AD0000C94F50B81E00C944D0D20E00C94F50B6B
:101AE000CF9390914B0290FF40C09178811102C03A
:101AF000926007C0853210F0986403C08F73880F1E
:101B0000982B90934B02662351F060914B02709199
:101B10004C0280914D0290914E020E944D0BC0915B
:101B20004B026C2F66956F7370E04BE050E082E0E3
:101B300091E00E946D2D892B19F01092710103C064
:101B400081E080937101CC1FCC27CC1F90914C0277
:101B5000892F880F97FB992790F940914E02609149
:101B60004D028C2BCF910C946D0DCF910895682F61
:101B700090914B0296959F7381E0890F853208F012
:101B800081E00C94700D81E00C94B70D682F90915A
:101B90004B0296959F738FEF890F09F484E20C94A2
:101BA000700D81E00C94C60D61E00C94700DEBE4B7
:101BB000F2E080818160808386958F730C94D40DD0
:101BC00060E00C94700D80917201811135C080919C
:101BD0001C02816080931C020E94681D811104C058
:101BE0000E94EB1D0E94690B0E94490B60934B02FF
:101BF00070934C0280934D0290934E026E7761F485
:101C00000E94690B0E94490B60934B0270934C0237
:101C100080934D0290934E020E94130B81E08093BB
:101C2000710180914B0280FF04C086958F730E94E2
:101C3000E00D81E0809372010895EBE4F2E0808191
:101C40008E7F808360817181828193810E944D0BA0
:101C5000109271012FEF80E792E021508040904078
:101C6000E1F700C000000C94B00B80914B0280FDA6
:101C70000C941D0E0C94D70DCF93E82FF0E0E25E8C
:101C8000FB4FC49180916F01909170010E94121FCF
:101C9000EC2FF0E08E179F0708F443C00E94061F48
:101CA0009093700180936F0160916E0170E080E00D
:101CB00090E00E94F42A20E030E04FE753E40E94D5
:101CC000172A2BED3FE049E450E40E941D2C0E94AE
:101CD0008A2C0E94912A2BE43AE34EE25FE30E94B1
:101CE000AA2920EF3BEF48ED52E40E941D2C0E94F0
:101CF000C32A462F80914B02881F8827881F909106
:101D00004C02292F220F97FB992790F960914D02E1
:101D1000822B0E94DB0B80916E0190E001968093F4
:101D20006E01CF910895CF93E82FF0E0E55EFB4F71
:101D3000C49180916C0190916D010E94121FEC2F53
:101D4000F0E08E179F07E8F00E94061F90936D0148
:101D500080936C0140914E0260914D0280916A0126
:101D600090916B010E94DB0B80916A0190916B0155
:101D7000019668E671E00E94032D90936B018093B9
:101D80006A01CF910895CF92DF92FF920F931F9334
:101D9000CF93DF93F82EE82FE695F0E0E85EFB4F57
:101DA000C49180916801909169010E94121FEC2FEB
:101DB000F0E08E179F07E8F10E94061F90936901DB
:101DC0008093680100E512E0C0E0D0E088E6C82E0C
:101DD000DD24D39480916601909167018C0F9D1F43
:101DE000B6010E94032D980140914E0260914D0270
:101DF0000E949F0A62960D5F1F4FC83681E0D80788
:101E000049F70E94B00B2091660130916701F0FE06
:101E10000AC0C9010196BE010E94032D909367017B
:101E20008093660106C021503109309367012093E9
:101E30006601DF91CF911F910F91FF90DF90CF90BE
:101E40000895AF92BF92CF92DF92EF92FF920F93DD
:101E50001F93CF93DF9380FF02C01FEF01C011E0FB
:101E60008695E82FF0E0EB5EFB4FC4918091640112
:101E7000909165010E94121FEC2FF0E08E179F07D2
:101E800008F466C00E94061F909365018093640168
:101E900020E5C22E22E0D22E32E5E32E32E0F32EF0
:101EA000C0E0D0E0F70131971082F6011082F7010F
:101EB000108294E0A92EB12C00E080916301800F84
:101EC00087FD8C5E082E000C990BC817D907E9F422
:101ED00080914E028A9DA0018B9D500D1124559535
:101EE00047955595479580914B02881F8827881FF5
:101EF00090914C02592F550F97FB992790F9960115
:101F000060914D02852B0E949F0A010FF1E0AF1AEC
:101F1000B10899F6219683E0C80ED11CE3E0EE0EDD
:101F2000F11CC431D10509F0BDCF0E94B00B8091E6
:101F30006301113031F4811102C083E107C0815087
:101F400005C090E00196BE010E94172D80936301A9
:101F5000DF91CF911F910F91FF90EF90DF90CF9085
:101F6000BF90AF9008950F931F93CF93DF93E82F07
:101F7000F0E0EE5EFB4FC4918091610190916201AF
:101F80000E94121FEC2FF0E08E179F0708F466C026
:101F90000E94061F909362018093610180E090E0AF
:101FA000FC01E05BFD4F11821082128203968C339C
:101FB0009105B1F7C0E0D0E004E110E0CE01B80136
:101FC0000E94172D40916001042E000C550BFC015E
:101FD000EE0FFF1FC417D5070CF140910101042E2D
:101FE000000C550B4C175D07CCF08E0F9F1F9C010A
:101FF000205B3D4F80914B02881F8827881F90915E
:102000004C02592F550F97FB992790F940914E029A
:1020100060914D02852B0E949F0A07C0E80FF91FAF
:10202000E05BFD4F1182108212822196C431D105EE
:1020300029F60E94B00B8091000190916001980FE9
:102040009093600120910101280F20930101121645
:1020500014F493311CF0819580930001DF91CF91AE
:102060001F910F910895EF92FF920F931F93CF93BB
:10207000DF9380915E0190915F010E94121F883E64
:102080009340D0F10E94061F90935F0180935E0100
:10209000C0915C01D0915D012196C170DD27D09384
:1020A0005D01C0935C0180E5E82E82E0F82E10E02F
:1020B00008E7812F8695FE01E80FF11DCF018170A1
:1020C0009927970140914E0260914D02FC010E9FAD
:1020D000C0010F9F900D11240E949F0A1F5FF3E023
:1020E000EF0EF11C143129F7DF91CF911F910F9161
:1020F000FF90EF900C94B00BDF91CF911F910F9157
:10210000FF90EF900895CF93DF9300D01F92CDB74B
:10211000DEB780915A0190915B010E94121FE0E1AD
:10212000F4E02591349182179307C0F18091590111
:1021300081110CC09E012F5F3F4F4FEF6FEF80E08A
:1021400090E00E949F0A8A81809359010E94061F95
:1021500090935B0180935A0180915801813051F036
:1021600028F0823061F4409159010AC080915901F0
:1021700040E007C06091590140E080E003C040E0CA
:1021800080E060E00E94C70B8091580190E00196CA
:1021900063E070E00E94172D809358010F900F901C
:1021A0000F90DF91CF9108950F931F93CF93DF93FB
:1021B00080915601909157010E94121F843F9140D7
:1021C00008F448C00E94061F90935701809356015F
:1021D000C0E5D2E000E010E02091540130915501BB
:1021E00080914B0290914C020A3011051CF4232B74
:1021F00079F002C0232B61F4881F8827881F592F8C
:10220000550F97FB992790F99E0140914E020AC005
:10221000881F8827881F592F550F97FB992790F9FA
:102220009E0140E060914D02852B0E949F0A0F5F46
:102230001F4F23960431110579F60E94B00B80914F
:102240005401909155010196817099279093550101
:1022500080935401DF91CF911F910F910895809148
:1022600071018823D9F190914B02892F86958F7344
:102270002EE3280F2F73243018F482500C943C0E58
:102280002AE3280F2F73233018F486500C94930EF2
:1022900027E3280F2F73263018F489500C94C30EAF
:1022A00021E3280F2F73263018F48F500C94210F40
:1022B0002BE2280F2F73233018F485510C94B30FA1
:1022C000892F8E77803311F40C943310863411F4F7
:1022D0000C948310883411F40C94D41008952EB10A
:1022E000342F309523233EB1432B3FB7F894FC01A4
:1022F000680F791FE617F70789F0819198E04EB9CA
:10230000000000C087FF2EB9880F000000C000C089
:1023100000C02EB900C09A9591F7ECCF3FBF089549
:102320002DB1242B2DB99B01220F331F620F731F78
:102330000E946F1187EC90E00197F1F700C0000058
:10234000089544E00C949011909378018093770164
:102350000895E0917701F0917801309721F0019094
:10236000F081E02D099480E00895E0917701F091EB
:102370007801309799F020911F01222359F0209184
:10238000920227FF07C0DC012C9111962C93119724
:1023900025E02C930280F381E02D09940895E091CB
:1023A0007701F0917801309739F022E0DC012C932D
:1023B0000480F581E02D09940895209175013091F4
:1023C00076018217930771F09093760180937501DF
:1023D000E0917701F0917801309721F00680F78144
:1023E000E02D0994089520917301309174018217B2
:1023F000930771F09093740180937301E0917701DA
:10240000F0917801309721F00084F185E02D099456
:10241000089585B7806885BF85B7806885BF0895B2
:10242000089508950C94111208950C9414120E94AA
:1024300009120E9410120C94121281E008950E9459
:10244000FD1E0E9478090E94861F0E94C0210E94E2
:10245000E30D0C9415124F925F927F928F929F9290
:10246000AF92BF92CF92DF92EF92FF920F931F93A2
:10247000CF93DF93CDB7DEB72A970FB6F894DEBFC0
:102480000FBECDBF0E94C2090E941D12811111C052
:102490008FEF89838A831B820E94061F8160782FB9
:1024A0009D838C8349815A816B818D810E94E912C1
:1024B00057C09AE7C92E91E0D92E00E010E0AA2477
:1024C000A394B12C702E802F0E945A0A4C01F60161
:1024D000419051906F01482659264114510431F41E
:1024E0000F5F1F4F0530110569F7D2CF80911C0295
:1024F00081FD0E94630A20E030E07501022E02C0D7
:10250000EE0CFF1C0A94E2F7C70184219521892B68
:1025100009F12E837F828E209F2091E0892809F483
:1025200090E098870E94061F8160782F9A8789879C
:102530004E815F8168858A850E94E912000F111F14
:10254000F801E658FE4F80819181E826F926F18254
:10255000E08206C02F5F3F4F2031310571F6C0CFBA
:102560000E941921109179010E94A9111817D9F020
:102570000E94A911809379012A960FB6F894DEBFC4
:102580000FBECDBFDF91CF911F910F91FF90EF90C4
:10259000DF90CF90BF90AF909F908F907F905F9093
:1025A0004F900C942A042A960FB6F894DEBF0FBE03
:1025B000CDBFDF91CF911F910F91FF90EF90DF90F2
:1025C000CF90BF90AF909F908F907F905F904F90F3
:1025D0000895CF93DF93CDB7DEB72B970FB6F8945E
:1025E000DEBF0FBECDBF4F83588769877A878B8741
:1025F000DE01119686E0FD0111928A95E9F785E0EA
:10260000FE01379601900D928A95E1F749815A8132
:102610006B817C818D819E810E94AD192B960FB6B6
:10262000F894DEBF0FBECDBFDF91CF910895FC01BE
:10263000808191810E94791C0895882309F4C6C085
:102640009CEF980F913A40F4682F80910D01909182
:102650000E010E94521E0DC090E2980F983058F45F
:10266000877091E001C0990F8A95EAF7892F0E943F
:10267000BB1C0C94041D9BE5980F933070F4853AB5
:1026800029F0863A31F083E890E005C081E890E0D7
:1026900002C082E890E00C94DD1198E5980F973124
:1026A00008F08EC0883A09F445C0893A09F445C05B
:1026B0008A3A09F445C08B3A09F445C08C3A09F4CA
:1026C00045C08B3B09F445C08C3B09F445C08D3AAD
:1026D00009F445C0803B09F445C08E3A09F445C071
:1026E0008F3A09F445C0813B09F445C0823B09F4A7
:1026F00045C0833B09F445C0843B09F445C0853B94
:1027000009F445C0863B09F445C0873B09F445C040
:10271000883B09F445C0893B09F445C08D3B09F469
:1027200045C08E3B09F445C08A3B09F445C080E0B2
:1027300090E044C082EE90E041C089EE90E03EC05F
:102740008AEE90E03BC085EB90E038C086EB90E0ED
:1027500035C083EB90E032C084EB90E02FC087EB74
:1027600090E02CC08CEC90E029C08DEC90E026C06D
:1027700083E891E023C08AE891E020C082E991E0FB
:102780001DC084E991E01AC081E292E017C083E2A3
:1027900092E014C084E292E011C085E292E00EC0A3
:1027A00086E292E00BC087E292E008C08FE690E0FC
:1027B00005C080E790E002C08AE292E00C94F31139
:1027C000803F20F00E9421200C940E210895882340
:1027D00089F19CEF980F913A40F4682F80910D0198
:1027E00090910E010E945D1E0DC090E2980F9830EE
:1027F00058F4877091E001C0990F8A95EAF7892F04
:102800000E94C11C0C94041D9BE5980F933020F48A
:1028100080E090E00C94DD1198E5980F973120F45A
:1028200080E090E00C94F311803F20F00E9489201A
:102830000C940E210895882321F00E94BB1C0C9457
:10284000041D0895882321F00E94C11C0C94041DCE
:1028500008954F925F926F927F92BF92CF92DF92D4
:10286000EF92FF920F931F93CF93DF937C01D62FAC
:10287000C72FFC01058102950F70128111110E9472
:10288000D81C0E94B11C882379F0112369F080E2E2
:102890008D0F883048F082E00E944F1D0E94B11CCD
:1028A00091E0B82EB92601C0B12CCC2EC2948FE095
:1028B000C822D12CF601E859FF4F0C944D2D8C2FD6
:1028C000807FCF70882311F0C295C07F112399F0CB
:1028D000CC2309F4D0C180E28D0F883010F0D111E3
:1028E00004C08C2F0E94BB1C03C08C2F0E94CB1CE9
:1028F0000E94041DC0C18D2F0E94E713CC2309F450
:1029000003C280E28D0F883010F0D11104C08C2FEB
:102910000E94C11C03C08C2F0E94D11C0E94041D68
:10292000F3C18C2F807FCF70803211F0C295C07FB1
:10293000DD2319F0D130C9F022C0112371F000233A
:1029400041F0013031F40E94EB1C8C2B0E94F11CF1
:10295000DBC10E94EB1C8C2B46C1002319F0013017
:1029600009F4D2C10E94FA1C18C0112321F00630CC
:1029700008F0CAC10EC0053008F0C6C10EC0112350
:1029800051F0002331F0F701858180FF74C18F7011
:1029900085838C2F28C101117FC18C2F2AC18C2FD8
:1029A00086958695837090E0009719F0019761F005
:1029B000ABC1112321F08D2F9C2F937002C080E0BA
:1029C00090E00E94DD11B0C1112321F08D2F9C2FCA
:1029D000937002C080E090E00E94F311A5C1112322
:1029E000F9F0D53F51F0D63F71F0D43FA9F4809172
:1029F0008C0290918D0281600BC080918C0290912D
:102A00008D02826005C080918C0290918D0284605D
:102A100090938D0280938C028D2F0E9421201EC0E6
:102A2000D53F51F0D63F71F0D43FA9F480918C028C
:102A300090918D028E7F0BC080918C0290918D02BF
:102A40008D7F05C080918C0290918D028B7F909339
:102A50008D0280938C028D2F0E9489200E940E216E
:102A600063C18C2F837009F050C0111159C18D2F93
:102A7000829586958770880F880F9D2F9F70492EAD
:102A8000512C612C712C082E04C0440C551C661C62
:102A9000771C0A94D2F7D4FF14C00FE010E020E0B6
:102AA00030E0B901A80104C0440F551F661F771F0D
:102AB0008A95D2F7CB01BA01609570958095909573
:102AC00003C060E070E0CB01C695C695C370D0E04E
:102AD000C230D10561F0C330D10581F06429752978
:102AE00086299729219771F00E94F21A19C1642949
:102AF0007529862997290E94041B12C10E94F21A87
:102B0000C301B2010E94E01A0BC1112319F08C2FEE
:102B1000817001C08695882309F402C18D2F8295AA
:102B200086958770880F880F9D2F9F70492E512C96
:102B3000612C712C082E04C0440C551C661C771C9B
:102B40000A94D2F7D4FF14C00FE010E020E030E088
:102B5000B901A80104C0440F551F661F771F8A954D
:102B6000D2F7CB01BA01609570958095909503C01E
:102B700060E070E0CB01C695C695C3704C2F50E065
:102B80004230510569F04330510589F064297529B7
:102B9000862997294130510571F00E94B81BC0C0A9
:102BA00064297529862997290E94CA1BB9C00E94E9
:102BB000B81BC301B2010E94A61BB2C08D2F90E0CA
:102BC000FC01E05EF109E531F10508F050C0E8587C
:102BD000FF4F0C944D2DDF708C2F8F71112331F02E
:102BE0000E943F1B8D2F0E941B148EC00E94601BF1
:102BF0008D2F0E94221488C0112341F0053008F067
:102C000083C08C2F8F710E94851B7EC0063008F018
:102C10007BC0F7CF112339F08C2F8F710E943F1B9F
:102C200073C01123C9F38C2F8F710E94601B6CC07D
:102C3000112329F08C2F8F710E942A1B65C00E94DE
:102C4000251B62C0112349F0CF718C2F0E943F1BBE
:102C500063E08C2F0E943A1D57C081E00E944F1DF7
:102C6000023008F451C082E00E944F1D4DC0112374
:102C700031F0002389F28D2F0E941D1345C00023DF
:102C800091F2D93349F45FEF67EE73E05150604041
:102C90007040E1F700C000008D2F0E94E71334C0A0
:102CA0004C2F4F706D2FC7010E94C2060E94511A0F
:102CB0003BC0111139C0CF70D0E0C230D10599F0BE
:102CC0003CF4209769F02197F9F40E94FA212CC076
:102CD000C430D10571F054F02597B1F480E00AC0FA
:102CE0000E94DD2121C00E9439221EC00E94402284
:102CF0001BC083E00E94632217C04C2F4F706D2FC2
:102D0000C7010E94C50610C088E0C816D10441F072
:102D10005CF0EAE0CE1AD108F2E0CF16D10420F43C
:102D20000E94A9110E942A04BB20F1F00E94AD1C50
:102D300080FD1AC0F70112820E94A71C0E943F1B4F
:102D4000C7010E94C2160E94A71CDF91CF911F915C
:102D50000F91FF90EF90DF90CF90BF907F906F909A
:102D60005F904F900C94601BDF91CF911F910F915A
:102D7000FF90EF90DF90CF90BF907F906F905F902B
:102D80004F9008950F931F93CF93DF93EC018881A9
:102D900099812B813C81232BB9F09F3F11F48F3F08
:102DA00099F0CE010E943C04882371F068817981FA
:102DB0008A810E94841C8C010E94DC1B0E94DD1A07
:102DC000B801CE010E942914DF91CF911F910F917C
:102DD00008950E94D81C0E94E81C0E94041D0E94B5
:102DE000B4210E940E2180E090E00E94DD1180E07D
:102DF00090E00C94F31180910D0190910E010E94CE
:102E0000681E0C94E9160E94C81C0C94FB16E92F4E
:102E1000E295EF70F0E03297EE30F105B0F4E35751
:102E2000FF4F0C944D2D803F91F018F4803E68F4D4
:102E30000EC0843F51F40BC0803E48F0813F29F41E
:102E400006C093FB882780F9089580E0089581E00B
:102E500008950E94791C0E9407170895CF93DF936D
:102E600000D000D01F92CDB7DEB70F900F900F901B
:102E70000F900F90DF91CF910895CF93DF9300D003
:102E800000D000D0CDB7DEB726960FB6F894DEBFDF
:102E90000FBECDBFDF91CF9108951F93CF93DF93E6
:102EA000C091850116E080918601C81799F0D0E0A5
:102EB0001C9FF0011D9FF00D1124E957FE4F40812A
:102EC000518162817381848195810E943D17219691
:102ED000C770E9CFDF91CF911F9108954091B7015D
:102EE0005091B8016091B9017091BA018091BB0114
:102EF0009091BC010C943D178091BC0182958F701C
:102F000009F054C08091B901882309F44FC0809121
:102F10008501A09186016091B7017091B80140913F
:102F2000BA015091BB01B6E08A1709F43FC090E0A6
:102F300041155105C1F17F3F11F46F3FA1F1B89FD9
:102F4000F001B99FF00D1124E957FE4F2181721352
:102F50002AC02081621327C02281211124C023812D
:102F600034812417350710F421503109241B350B07
:102F7000283C3105C0F42091BC012F7020612093C2
:102F8000BC0126E0289FF001299FF00D1124E45791
:102F9000FE4F80818F708061808387EB91E00E947B
:102FA000C2160C944D1701968770BECF0895CF922C
:102FB000DF92EF92FF920F931F93CF93DF93CDB7E2
:102FC000DEB762970FB6F894DEBF0FBECDBF8C019F
:102FD00085E0F801DE011D9601900D928A95E1F7DA
:102FE000D8014C9111965C91119712966C911297A1
:102FF0001396CD90DC9014973091B7017091B80181
:103000008091BA019091BB01009709F46BC17F3F99
:1030100019F43F3F09F466C1E090B901EE2009F4CC
:10302000C0C02091BC01C816D90628F0F601E81BE3
:10303000F90BCF0104C0809590958C0D9D1DFF2448
:10304000F394883C910578F0F12C207F09F0C6C0FC
:103050007C2DD98AC88A89890E942E1787EB91E036
:103060000E94C216B1C0822F807F09F046C075133E
:1030700014C0341312C0611110C02F70206120934E
:10308000BC010E946E1787EB91E00E94C2168091EE
:10309000BC01D80115968C932EC0CD2819F15F3F45
:1030A00011F44F3FF9F0F62E61111CC0809185019B
:1030B0002091860136E0821709F45AC090E0389FCB
:1030C000F001399FF00D1124E957FE4F718157131C
:1030D00006C07081471303C07281711103C001964D
:1030E0008770E9CFF62E662309F427C18091BC01D1
:1030F00081608093BC01F12C20C1751308C034138A
:1031000006C0611104C08091BC01D801C3C04D87C5
:103110005E878D859E856A8B0E9429176A89882320
:10312000E1F16623D1F12091BC01822F82958F704D
:1031300090E0029774F08091B7019091B801988760
:103140008F831986DB86CA862C87CE0107960E945C
:10315000C21686E0F801A7EBB1E001900D928A95C6
:10316000E1F70E947C170E946E17FF24F394E5C0DC
:103170004D875E878D859E850E94791C292F22951B
:103180002F7030E0223031050CF0CBC09F7009F079
:10319000C5C0805E883008F4D0C0C8010E94C21645
:1031A000E4CFC816D90608F453C0F601E81BF90BA2
:1031B000CF01883C910508F450C0F12C7C2DD98AB0
:1031C000C88A89890E942E17E7EBF1E086E0DF01CB
:1031D0001D928A95E9F70E946E17AFC0751314C04F
:1031E000341312C0611110C08091BC01F8018583B5
:1031F000C8010E94C21686E0E7EBF1E0DF011D92F4
:103200008A95E9F7FE2C99C04D875E878D859E854E
:103210006A8B0E9429176A89882309F4BECF662326
:1032200009F4BBCF2091BC01822F82958F7090E072
:1032300002970CF48ECF8091B7019091B8019A83D8
:1032400089831B82DD82CC822E83CE0101967FCFC3
:10325000809590958C0D9D1DACCFF62E662309F4BC
:103260009CCF75132EC034132CC02091BC0120FDBF
:103270001FC0822F82958F70D9F0D80115962C939C
:1032800015978F3049F08F5F982F9295907F822FFE
:103290008F70892B15968C93C8010E94C21686E008
:1032A000F801A7EBB1E001900D928A95E1F793CF79
:1032B00086E0F801A7EBB1E001900D928A95E1F765
:1032C0003CC04D875E878D859E850E9429178111A0
:1032D00040CF8091BC0181608093BC01C8010E94F5
:1032E000C2162BC0662309F458CF4D875E878D85A3
:1032F0009E850E942917F82E882309F44ECF86E078
:10330000F801A7EBB1E001900D928A95E1F787EB08
:1033100091E00E9417130E947C175DCF811139CF75
:103320000CC0243031050CF038CF9F7009F431CF38
:10333000F8019581907F09F02CCF8F2D62960FB602
:10334000F894DEBF0FBECDBFDF91CF911F910F91DB
:10335000FF90EF90DF90CF9008951F93CF93DF936E
:10336000CDB7DEB72C970FB6F894DEBF0FBECDBF3A
:103370004F83588769877A878B879C87CE0107960A
:103380000E94D717882369F08F8198852A853B850D
:10339000232BF1F19F3F09F063C08F3F09F060C01C
:1033A00037C086E0FE013796DE01119601900D923E
:1033B0008A95E1F76F817885EA85FB85309741F141
:1033C0007F3F11F46F3F21F12091860130E0C90168
:1033D0000196877099274091850150E084179507E1
:1033E00009F447C069837A83FD83EC8396E0929F5A
:1033F000D001939FB00D1124A957BE4FFE01319605
:1034000001900D929A95E1F7809386010E944D17E5
:1034100016E080918501909186018917C1F1189F6E
:10342000C001112489579E4F0E94D717882379F134
:10343000E09185011E9FF0011124E957FE4F408164
:10344000518162817381848195810E943D178091B1
:10345000850190E001968770992780938501D9CFE7
:103460004F81588569857A858B859C850E943D179B
:10347000CFCF0E9403171092860110928501E7EBCF
:10348000F1E086E0DF011D928A95E9F7C1CF2C9625
:103490000FB6F894DEBF0FBECDBFDF91CF911F9165
:1034A0000895EF92FF920F931F93CF93DF938C01B8
:1034B000892B09F46CC0F12CEE24E394E8012196E9
:1034C000F8018491843740F4843008F051C0813091
:1034D00081F0823019F15BC0853709F444C0A8F14E
:1034E0009CE7980F903708F052C08F770E94E7133F
:1034F00041C00E5F1F4FFE01C49180E28C0F8830E7
:1035000048F4C7708E2D01C0880FCA95EAF70E9453
:10351000DB1C14C08C2F0E941D132DC00E5F1F4F8B
:10352000FE01C49180E28C0F883058F4C7708E2D54
:1035300001C0880FCA95EAF70E94E11C0E94041D91
:103540001AC08C2F0E94E71316C00E5F1F4FFE019A
:10355000C491CC2381F08FE99FE00197F1F700C07F
:103560000000C150F6CF0E5F1F4FFE01F49003C064
:103570000E941D138E018F2D882309F49FCFEFE940
:10358000FFE03197F1F700C000008150F5CFDF91E7
:10359000CF911F910F91FF90EF90089508950C9493
:1035A000CE1A0E94CF1A6093F3017093F4018093B6
:1035B000F5019093F6010C94E91608950C94D11A34
:1035C0000F931F930091F3011091F4012091F501E5
:1035D0003091F601602B712B822B932B1F910F9151
:1035E0000C94D11A0F931F930091F3011091F401E1
:1035F0002091F5013091F6016023712382239323FA
:103600001F910F910C94D11A0F931F930091F30106
:103610001091F4012091F5013091F6016027712796
:10362000822793271F910F910C94D11A08950C941F
:10363000161B0E94171B6093EF017093F00180939B
:10364000F1019093F2010C94E91660E070E0CB0177
:103650000C94191B0F931F9341E050E060E070E061
:103660008A019B0104C0000F111F221F331F8A957E
:10367000D2F7C901B8011F910F910C94191B0F9338
:103680001F9341E050E060E070E004C0440F551F1C
:10369000661F771F8A95D2F78091EF019091F00114
:1036A000A091F101B091F2018A019B01082B192B25
:1036B0002A2B3B2BC901B8011F910F910C94191BA8
:1036C0000F931F9341E050E060E070E004C0440FAE
:1036D000551F661F771F8A95D2F7409550956095C4
:1036E00070958091EF019091F001A091F101B0915E
:1036F000F2018A019B01082319232A233B23C901D4
:10370000B8011F910F910C94191B0F931F9341E067
:1037100050E060E070E004C0440F551F661F771F43
:103720008A95D2F78091EF019091F001A091F1017B
:10373000B091F2018A019B01082719272A273B270C
:10374000C901B8011F910F910C94191B0F931F937E
:103750000091EF011091F0012091F1013091F201FF
:10376000602B712B822B932B1F910F910C94191BA3
:103770000F931F930091EF011091F0012091F1013F
:103780003091F20160237123822393231F910F91C3
:103790000C94191B0F931F930091EF011091F001EE
:1037A0002091F1013091F201602771278227932740
:1037B0001F910F910C94191B089520E1929F800D89
:1037C0001124A82FA695A695A695877051E001C053
:1037D000550F8A95EAF785E0A89FD001112420E0D3
:1037E00030E070E0F901EA0FFB1FE354FE4F408127
:1037F000CB01022E02C0969587950A94E2F781705C
:103800009927819584278523842780832F5F3F4FC5
:103810002530310539F7089520E1929F800D11245C
:10382000682F669566956695982F977085E0689FD6
:10383000B001112440E050E080E0FA01E60FF71FEC
:10384000E354FE4F208130E0092E02C036952795C3
:103850000A94E2F721703327042E01C0220F0A9444
:10386000EAF7822B4F5F5F4F4530510531F70895DE
:10387000BF92CF92DF92EF92FF920F931F93CF935D
:10388000DF938C01C090F301D090F401E090F5013A
:10389000F090F6018091EF019091F001A091F1017B
:1038A000B091F201C82AD92AEA2AFB2ACFE1D0E056
:1038B000D701C6010C2E04C0B695A795979587959C
:1038C0000A94D2F780FF07C0BC2EB8018C2F0E944B
:1038D000E306019719F4219758F7B12C8B2DDF914E
:1038E000CF911F910F91FF90EF90DF90CF90BF90FD
:1038F0000895CF93DF93EC010E94381CBE010E9413
:10390000E306DF91CF9108951F93CF93DF93EB01EF
:1039100090918401992321F0CB010E94791C13C05E
:10392000882349F0CB010E94381C182F682FCE0144
:103930000E94DD1B04C0CB010E940C1C182FBE018D
:10394000812F0E94E306DF91CF911F91089580910E
:10395000F70185958595859508958091F701877084
:1039600008959091F701977081E009F480E008953F
:1039700080911B02089590911B02892B80931B025A
:103980000895809590911B02892380931B020895CE
:1039900010921B02089590911A02892B80931A02AB
:1039A0000895809590911A02892380931A020895B0
:1039B00010921A02089590911902892B809319028E
:1039C0000895809590911902892380931902089592
:1039D0001092190208958091F801089508950C94A9
:1039E000EE1C9091F801981721F08093F8010C9447
:1039F000EF1C08958091F801882329F01092F801B6
:103A000080E00C94EF1C0895E0910D01F0910E01FF
:103A100080911B028083E0910D01F0910E01908155
:103A200080911A02892B8083E0910D01F0910E01A3
:103A3000908180911902892B80838091F8018823DD
:103A400081F0E0910D01F0910E019081892B80832E
:103A500080910D0190910E010E94ED1D81110E9437
:103A6000FA1C80910D0190910E010C94B5110895EE
:103A70000C94371D98E0899F90011124262B2093E8
:103A8000F7010E943F1B8091F701859585958595EB
:103A90000C94381D1092F70180E00C94381D209191
:103AA000F701809582238093F701982F977079F41E
:103AB00030E0482F082E000C550B2417350739F03D
:103AC0008595859585950E94601B0C944A1D0895E7
:103AD00080E090E00E94882D21E08D3E9E4F09F00D
:103AE00020E0822F089582E090E00C947A2D83E00C
:103AF00090E00C947A2D84E090E00C947A2D682F5D
:103B000084E090E00C948E2D86E090E00C947A2D69
:103B1000682F86E090E00C948E2DAB01BC018FE005
:103B200090E00C94A02DAB01BC0183E190E00C94DB
:103B3000A02D60E070E0CB010C94931D60E070E07C
:103B4000CB010E948D1D0C94991D6DEE7EEF80E0DF
:103B500090E00E94AC2D60E082E090E00E948E2D0B
:103B600060E083E090E00E948E2D1092F3011092AD
:103B7000F4011092F5011092F60160E084E090E00B
:103B80000E948E2D60E085E090E00E948E2D60E026
:103B900086E090E00E948E2D6FEF87E090E00E941B
:103BA0008E2D40E050E0BA0188E090E00E94A02D08
:103BB00060E08DE090E00E948E2D40E050E0BA0180
:103BC00088E190E00E94A02D60E087E190E00E94F3
:103BD0008E2D0C949E1D0C94A51DFC013296809197
:103BE0001F01882331F08091920287FF02C09EE17D
:103BF00001C096E080E0915028F021912223D9F372
:103C00008F5FF9CF08959C01FC0132969FEF80E011
:103C10004191461789F09F3F19F4411101C0982F37
:103C20008F5F8630A9F79F3F39F0F901E90FF11D49
:103C300097FDFA95628308950895FC0132960896DF
:103C40002081261301C010823196E817F907C1F7C9
:103C50000895262F2695269526952E3168F4FC0189
:103C6000E20FF11D677021E030E001C0220F6A957C
:103C7000EAF78281282B22830895262F2695269500
:103C800026952E3170F4FC01E20FF11D677021E0E2
:103C900030E001C0220F6A95EAF72095828128233F
:103CA0002283089520911F01222329F0209192025E
:103CB00027FD0C94291E0C94031E20911F01222322
:103CC00029F02091920227FD0C943D1E0C941D1E9C
:103CD00020911F01FC013296222331F08091920243
:103CE00087FF02C08EE101C086E0DF011D928A9548
:103CF000E9F7089508950C947A1E0E947B1E809126
:103D00009902843061F110921D0220E488E190E074
:103D10000FB6F894A895809360000FBE20936000C2
:103D200080E00E94B30380E00E942A040E947B1E70
:103D300083B7817F846083BF83B7816083BF7894BA
:103D4000889583B78E7F83BF0FB6F894A89580912E
:103D50006000886180936000109260000FBE08953B
:103D600008950895CF930E94B01E0E94C2090E9438
:103D7000B11EC0E08C2F0E945A0A892B29F4CF5F14
:103D8000C530C1F780E001C081E0CF91089508956A
:103D90000C94C71E0E9403170E94C0210E94A91103
:103DA0000E942A040C94C81E1F920F920FB60F9205
:103DB00011248F939F93AF93BF9380911D02811124
:103DC00013C080918E0290918F02A0919002B091C9
:103DD00091024196A11DB11D80938E0290938F0296
:103DE000A0939002B0939102BF91AF919F918F9158
:103DF0000F900FBE0F901F90189582E084BD93E046
:103E000095BD9AEF97BD80936E0008952FB7F894F3
:103E100080918E0290918F02A0919002B0919102B8
:103E20002FBF0895CF92DF92EF92FF920F931F93CF
:103E30002FB7F89440918E0250918F0260919002BA
:103E4000709191022FBF6A017B01EE24FF248C0147
:103E500020E030E0C016D106E206F30610F441502F
:103E600051099A01281B390BC9011F910F91FF902D
:103E7000EF90DF90CF90089578941F920F920FB635
:103E80000F9211248F939F93AF93BF9380918E02D3
:103E900090918F02A0919002B09191020196A11D84
:103EA000B11D80938E0290938F02A0939002B093E5
:103EB0009102BF91AF919F918F910F900FBE0F9084
:103EC0001F90189581E08093E00080E28093D800F5
:103ED0001092C9008FE19EE40197F1F700C0000045
:103EE00087E090EBDC018093A2029093A302A09361
:103EF000A402B093A5029CE088E10FB6F894A895BF
:103F0000809360000FBE90936000FFCF0E94681DF9
:103F1000811102C00E94EB1D0E94731D80931C0240
:103F20000E947B1D90E090939302809392020E94E6
:103F3000771D682F70E080E090E00C94DE1A80918D
:103F4000200280FF0BC06091120185E0689FB001E4
:103F5000112475956795759567952BC081FF09C0EC
:103F60006091120185E0689FB001112475956795F5
:103F700020C082FF07C06091120185E0689FB001F8
:103F8000112417C0909121029923D1F06091110161
:103F9000961788F72091120185E0289F900111243F
:103FA000929FA001939F500D112470E0CA010E94BE
:103FB000172D6038710540F46115710539F002C0A4
:103FC00065E070E0862F08958FE7089581E00895F9
:103FD0008091200280FF08C06091100170E075950B
:103FE00067957595679521C081FF06C060911001A6
:103FF00070E07595679519C082FF04C0609110014B
:1040000070E010C0909121029923C1F060910F01DE
:104010009617A0F780911001899FC001112470E0CC
:104020000E94172D6038710528F46115710521F083
:10403000862F08958FE7089581E0089561E070E08C
:10404000F4CF803F21F40E949F1F819504C0813FDF
:1040500029F40E949F1F809325020895823F21F436
:104060000E949F1F819504C0833F29F40E949F1FD7
:10407000809324020895893F19F40E94E81F05C027
:104080008A3F31F40E94E81F8195809326020895AB
:104090008B3F21F40E94E81F819504C08C3F29F4D6
:1040A0000E94E81F809327020895843F21F48091A5
:1040B0002302816017C0853F21F480912302826032
:1040C00011C0863F21F48091230284600BC0873F9A
:1040D00021F480912302886005C0883F31F48091EB
:1040E000230280618093230208958D3F21F4809103
:1040F000200281600BC08E3F21F4809120028260FB
:1041000005C08F3F29F480912002846080932002B3
:104110000895803F39F48091250287FF6CC010928A
:10412000250269C0813F29F4809125021816BCF34D
:1041300062C090912402823F29F497FF5CC01092E4
:10414000240259C0833F19F41916CCF354C0893F97
:1041500041F48091260218160CF04DC010922602F0
:104160004AC08A3F29F48091260287FF44C0F6CFD7
:104170008B3F39F48091270287FF3DC010922702C0
:104180003AC08C3F29F4809127021816BCF333C043
:10419000843F21F4809123028E7F17C0853F21F454
:1041A000809123028D7F11C0863F21F480912302EC
:1041B0008B7F0BC0873F21F480912302877F05C04E
:1041C000883F31F4809123028F7E8093230213C0B5
:1041D0008D3F21F4809120028E7F0BC08E3F21F411
:1041E000809120028D7F05C08F3F29F480912002AD
:1041F0008B7F809320028091240281110EC08091D8
:10420000250281110AC080912602811106C0809189
:104210002702811102C010922102089582E292E0E9
:104220000E94CF110E94061F90931F0280931E02CE
:1042300008951F93CF93DF9380911E0290911F02E8
:104240000E94121FAC0190912102992321F020912C
:10425000130130E006C0209114018AE0289F9001EC
:1042600011244217530708F47BC080912402C091A7
:104270002502D091260210912702811107C0C11199
:104280006BC0D11169C0111167C06AC09F3F19F09E
:104290009F5F90932102181624F40E949F1F809321
:1042A00024028091240287FF05C00E949F1F8195F0
:1042B000809324021C1624F40E949F1F80932502E1
:1042C0008091250287FF05C00E949F1F81958093E2
:1042D0002502309124023323E1F02091250222238C
:1042E000C1F045EB3403C0011124892F990F990BBC
:1042F000009709F481E08093240235EB2303C00189
:104300001124892F990F990B009709F481E080936C
:1043100025021D1624F40E94E81F80932602809136
:10432000260287FF05C00E94E81F81958093260220
:10433000111624F40E94E81F80932702809127021F
:1043400087FF05C00E94E81F819580932702DF91B7
:10435000CF911F910C940E219F3F09F099CFA1CFCF
:10436000DF91CF911F910895E2E2F2E086E0DF0154
:104370001D928A95E9F71092210210922002089569
:104380000E94681D811102C00E94EB1D0E94841DC5
:1043900080939402282F269530E02430310524F0B4
:1043A00081708660809394028091940280FF02C0A5
:1043B000869501C080E00C94B30320919402822F73
:1043C0008695482F50E04330510544F48F5F982F75
:1043D000990F822F8170892B80939402809194028F
:1043E0008160809394020E94881D8091940286953A
:1043F0000C94B30380919402982F969591F0915864
:10440000990F8170892B809394028E7F91E009F43B
:1044100090E08091940290FB80F9809394020E9436
:10442000881D8091940286950C94B3038091940228
:1044300080FD11C0816080939402813019F483E083
:1044400080939402809194020E94881D809194022E
:1044500086950C94B30308958091940280FF08C060
:104460008E7F809394020E94881D80E00C94B30399
:1044700008958091940280FD0C942C220C941622B5
:1044800090919402892F86958F5F8F7791708430F9
:1044900028F4880F892B8093940202C09093940291
:1044A000809194028E7F91E009F490E080919402D3
:1044B00090FB80F9809394020E94881D8091940261
:1044C00086950C94B303843008F083E0880F9091B4
:1044D00094029170892B809394028E7F91E009F46D
:1044E00090E08091940290FB80F9809394020E9466
:1044F000881D8091940286950C94B30380914802A4
:1045000008950F931F93CF93DF9300D01F92CDB7E1
:10451000DEB78C010E94F124823011F0843021F545
:1045200084E089831B830A8382E08093E9008FEF14
:104530009091E800815095FD06C095ED9A95F1F7B0
:1045400000008111F5CF8091E80085FF0DC040E0AB
:1045500050E063E070E0CE0101960E940E2580914C
:10456000E8008E778093E8000F900F900F90DF9116
:10457000CF911F910F910895CF93DF9300D01F9299
:10458000CDB7DEB720919902243031F523E029839D
:10459000805891099B838A8382E08093E9008FEFA2
:1045A0009091E800815095FD06C095ED9A95F1F740
:1045B00000008111F5CF8091E80085FF0DC040E03B
:1045C00050E063E070E0CE0101960E940E258091DC
:1045D000E8008E778093E8000F900F900F90DF91A6
:1045E000CF910895CF93DF93EC010E94F1248230A4
:1045F00011F08430F9F482E08093E9009FEF80911C
:10460000E800915085FD06C085ED8A95F1F7000020
:104610009111F5CF8091E80085FF0CC040E050E09B
:1046200066E070E0CE010E940E258091E8008E7752
:104630008093E800DF91CF910895CF93DF93EC0151
:104640000E94F124823011F08430D9F580911F014D
:10465000882339F08091920287FF03C060E282E0F4
:1046600002C068E081E08093E9008FEF9091E8005C
:10467000815095FD06C095ED9A95F1F700008111E6
:10468000F5CF8091E80085FF1CC080911F0181114A
:1046900005C040E050E068E070E003C070E040E03A
:1046A00050E0CE010E940E258091E8008E77809325
:1046B000E80080E2FE01A8E2B2E001900D928A9546
:1046C000E1F7DF91CF91089580919802811109C09F
:1046D0000E94A3260E9400278091E20084608093BC
:1046E000E2000895109298020895089508950C9498
:1046F000CA1E42E061EC81E00E941D2642E261ECAC
:1047000082E00C941D2680919B02833009F460C0E6
:1047100030F4813071F0823009F499C008958A3004
:1047200009F485C08B3009F46BC0893009F0A7C04B
:1047300020C080919A02813A09F0A1C08091E800DE
:10474000877F8093E80080919E0290919F02892B41
:1047500021F460E288E292E003C060E080E090E053
:1047600070E00E9459258091E8008B778093E800E3
:10477000089580919A02813209F081C080919E0251
:1047800090919F02029708F07AC08091E800877F9D
:104790008093E8008091E80082FD05C08091990235
:1047A0008111F8CF6CC02091F3008091F20090E06D
:1047B000922B029729F48091F1008B7F813021F4B4
:1047C0008091F100809348028091E8008B7753C07C
:1047D00080919A02813A09F052C080919E02909194
:1047E0009F02892B09F04BC08091E800877F80935E
:1047F000E8008091E80080FFFCCF80911F0136C067
:1048000080919A028132D9F580919E0290919F0207
:10481000892BA9F58091E800877F8093E8000E94AA
:10482000522680919C0280931F010C940317809163
:104830009A02813221F58091E800877F8093E80019
:104840000E94522680919D02809349020895809192
:104850009A02813AA1F48091E800877F8093E80072
:104860008091E80080FFFCCF809149028093F100A5
:104870008091E8008E778093E8000C94522608958A
:1048800084B7877F84BF0FB6F894A89580916000A5
:10489000886180936000109260000FBE80E8809372
:1048A0006100109261000E9417120E94A3260E94CC
:1048B00000278091E20084608093E20078940E9457
:1048C0008F290E941F1285E191E00E94A41180911E
:1048D0009902853069F40E947D1E80919702882399
:1048E000B1F30E94B21E882391F30E94F824EFCF07
:1048F0000E942B120E942F11EACF0C947F24292FA3
:10490000332723303105C9F064F42130310581F0BB
:104910002230310509F04CC08BE390E02EE535E004
:104920004BC02132310521F12232310589F140C0DD
:1049300082E190E029E935E03FC099278130910577
:1049400071F02CF4892BA1F5EAE5F5E00DC0823079
:10495000910541F0039761F5ECE2F5E005C0E0E573
:10496000F5E002C0E2E3F5E0849190E09F0124C00D
:104970006115710541F061307105D1F489E090E075
:1049800029E835E019C089E090E020E735E014C05F
:104990006115710541F06130710551F480EC90E0D2
:1049A0002BEA35E009C080E490E02BE636E004C055
:1049B00080E090E020E030E0FA0131832083089528
:1049C0000895CF93C82F0E94E024C0934A02CF914C
:1049D000089580919902843011F081E0089582E079
:1049E000089580914A02811102C00C94E92408952F
:1049F00080E189BD82E189BD09B400FEFDCF8091CF
:104A0000D8008F7D8093D8008091E00082608093F1
:104A1000E0008091E00081FDFCCF0895CF92DF920D
:104A2000EF92FF920F931F93CF93DF93EC018B01D3
:104A30006A010E947126811133C0C114D10439F07A
:104A4000F60180819181081B190BC80FD91FE12C39
:104A5000F12C0115110519F18091E80085FD16C0B2
:104A60008091E8008E778093E800C114D10449F06A
:104A7000F60180819181E80EF91EF182E08285E0E5
:104A80000FC00E947126882321F30AC08991809368
:104A9000F10001501109FFEFEF1AFF0ADACF80E0B1
:104AA000DF91CF911F910F91FF90EF90DF90CF900A
:104AB00008952091A0023091A1022617370748F0EF
:104AC0006115710539F42091E8002E772093E800F4
:104AD00001C0B90140E061157105A9F12091990269
:104AE000222309F443C0253009F442C02091E80094
:104AF00023FD40C02091E80022FD32C02091E80053
:104B000020FFE9CF4091F3002091F20030E0342BF8
:104B1000FC01CF016115710559F02830310540F4D1
:104B200081918093F100615071092F5F3F4FF1CF68
:104B300041E02830310509F040E02091E8002E776F
:104B40002093E800C8CF4111C9CF0AC080919902D3
:104B5000882361F0853061F08091E80083FD0AC010
:104B60008091E80082FFF2CF80E0089582E008950E
:104B700083E0089581E008952091A0023091A10280
:104B80002617370748F06115710539F42091E800C0
:104B90002E772093E80001C0B901FC0120E06115E7
:104BA000710591F180919902882309F440C0853004
:104BB00009F43FC08091E80083FD3DC08091E8008A
:104BC00082FD2FC08091E80080FFE9CF2091F300A3
:104BD0008091F20090E0922B6115710559F08830B8
:104BE000910540F424912093F100319661507109B0
:104BF0000196F2CF21E0089709F020E08091E800CB
:104C00008E778093E800CBCF2111CCCF0AC0809162
:104C10009902882361F0853061F08091E80083FD7E
:104C20000AC08091E80082FFF2CF80E0089582E020
:104C3000089583E0089581E00895982F973058F5FE
:104C40009093E900981739F07091EC002091ED00F5
:104C50005091F00003C0242F762F50E021FF19C09F
:104C60003091EB003E7F3093EB003091ED003D7FC3
:104C70003093ED003091EB0031603093EB00709396
:104C8000EC002093ED005093F0002091EE0027FF00
:104C900007C09F5FD3CF8F708093E90081E00895B4
:104CA00080E0089580919A0287FF11C08091E8000A
:104CB00082FD05C0809199028111F8CF11C08091C9
:104CC000E8008B770BC080919902882349F080918E
:104CD000E80080FFF8CF8091E8008E778093E800AD
:104CE00008952091E4003091E50095E64091EC00B4
:104CF000842F817040FF22C08091E80080FD1CC09D
:104D000080919902882391F0853091F08091EB0099
:104D100085FD10C04091E4005091E5004217530713
:104D200029F39A01915011F784E0089582E00895E3
:104D300083E0089581E0089580E008954091E800BF
:104D400042FFDECF08950E9411270E941927E0EE4E
:104D5000F0E0808181608083E8EDF0E080818F77F2
:104D6000808319BCA7EDB0E08C918E7F8C938081FD
:104D70008F7E80831092980208950F931F93CF9394
:104D8000DF930E9411270E941927C8EDD0E0888187
:104D90008F77888388818068888388818F7D8883E6
:104DA00019BC1092990210929502109297021092DB
:104DB000960200EE10E0F80180818B7F808388816D
:104DC0008160888342E060E080E00E941D26E1EE81
:104DD000F0E080818E7F8083E2EEF0E08081816070
:104DE0008083808188608083F80180818E7F8083CA
:104DF000888180618883DF91CF911F910F91089501
:104E0000E8EDF0E080818F7E8083E7EDF0E0808147
:104E10008160808384E082BF81E0809398020C945B
:104E2000BD26E8EDF0E080818E7F80831092E20065
:104E300008951092DA001092E10008951F920F92E7
:104E40000FB60F9211242F933F934F935F936F935D
:104E50007F938F939F93AF93BF93EF93FF93809133
:104E6000E10082FF0BC08091E20082FF07C08091C9
:104E7000E1008B7F8093E1000E948E298091DA000F
:104E800080FF1FC08091D80080FF1BC08091DA0096
:104E90008E7F8093DA008091D90080FF0DC080E181
:104EA00089BD82E189BD09B400FEFDCF81E0809318
:104EB00099020E94642305C019BC109299020E94B5
:104EC00072238091E10080FF19C08091E20080FF91
:104ED00015C08091E2008E7F8093E2008091E20015
:104EE00080618093E2008091D80080628093D80036
:104EF00019BC85E0809399020E9476238091E1009D
:104F000084FF30C08091E20084FF2CC080E189BD25
:104F100082E189BD09B400FEFDCF8091D8008F7D6C
:104F20008093D8008091E1008F7E8093E100809192
:104F3000E2008F7E8093E2008091E20081608093A6
:104F4000E20080919502882311F084E007C08091EF
:104F5000E30087FD02C081E001C083E080939902F5
:104F60000E9477238091E10083FF29C08091E200B5
:104F700083FF25C08091E100877F8093E10082E07C
:104F800080939902109295028091E1008E7F809328
:104F9000E1008091E2008E7F8093E2008091E20048
:104FA00080618093E20042E060E080E00E941D2684
:104FB0008091F00088608093F0000E947523FF913B
:104FC000EF91BF91AF919F918F917F916F915F9181
:104FD0004F913F912F910F900FBE0F901F901895FA
:104FE0001F920F920FB60F9211242F933F934F935E
:104FF0005F936F937F938F939F93AF93BF93CF9361
:10500000DF93EF93FF93C091E900CF708091EC00A4
:10501000D82FD17080FDD0E81092E9008091F00087
:10502000877F8093F00078940E9434281092E900E2
:105030008091F00088608093F000CD2BCF70C093FA
:10504000E900FF91EF91DF91CF91BF91AF919F91D7
:105050008F917F916F915F914F913F912F910F9021
:105060000FBE0F901F9018951F93CF93DF93CDB76E
:10507000DEB7AA970FB6F894DEBF0FBECDBFEAE940
:10508000F2E088E08E0F9091F10091938E13FBCFA8
:105090000E9483238091E80083FF28C180919A02B7
:1050A00090919B02492F50E04A30510508F01EC1F3
:1050B000FA01E556FF4F0C944D2D803821F08238CF
:1050C00009F014C108C0809196029091970299232B
:1050D00089F082600FC080919E028F70873008F047
:1050E00005C18093E9008091EB0085FB882780F95A
:1050F0001092E9009091E800977F9093E8008093E8
:10510000F1001092F100D0C0282F2D7F09F0EEC0E1
:10511000882319F0823061F0E9C080919C028130CF
:1051200009F0E4C0933009F080E0809397022EC02C
:1051300080919C0281112AC080919E028F702FEF76
:10514000280F263008F0D2C08093E9002091EB00B0
:1051500020FF1CC0933021F48091EB00806214C0CA
:105160009091EB0090619093EB0021E030E0A90179
:1051700002C0440F551F8A95E2F74093EA0010924F
:10518000EA008091EB0088608093EB001092E900C8
:105190008091E800877F8093E8000E945226A6C095
:1051A0008111A4C010919C021F778091E300807848
:1051B000812B8093E3008091E800877F8093E80053
:1051C0000E9452268091E80080FFFCCF8091E3008E
:1051D00080688093E300111102C082E001C083E087
:1051E0008093990283C08058823008F07FC08091FC
:1051F0009C0290919D028C3D53E0950779F583E0E8
:105200008A838AE289834FB7F894DE01139620E0FF
:105210003EE051E2E32FF0E050935700E49120FF8D
:1052200003C0E295EF703F5FEF708E2F90E0EA30A1
:1052300010F0C79601C0C0968D939D932F5F2431C7
:1052400049F74FBF8091E800877F8093E8006AE2CA
:1052500070E0CE0101960E94592515C060919E0212
:1052600070919F02AE014F5F5F4F0E947D24BC0191
:10527000892BE1F19091E800977F9093E800898174
:105280009A810E94BC258091E8008B778093E8008A
:105290002DC0803859F58091E800877F8093E80021
:1052A000809195028093F1008091E8008E7773CF12
:1052B00081111CC090919C029230C0F48091E80052
:1052C000877F8093E800909395020E9452268091F8
:1052D0009502811106C08091E30087FD02C081E044
:1052E00001C084E0809399020E9479238091E800B4
:1052F00083FF0AC08091E800877F8093E800809157
:10530000EB0080628093EB00AA960FB6F894DEBFA4
:105310000FBECDBFDF91CF911F9108950895CF9318
:10532000809199028823A1F0C091E900CF709091FB
:10533000EC00892F817090FD80E8C82B1092E90065
:105340008091E80083FD0E943428CF70C093E9006B
:10535000CF9108955058BB27AA270E94C2290C94C8
:105360006D2B0E945F2B38F00E94662B20F039F4E1
:105370009F3F19F426F40C94352B0EF4E095E7FBCF
:105380000C942F2BE92F0E947E2B58F3BA1762073B
:1053900073078407950720F079F4A6F50C94A02BE9
:1053A0000EF4E0950B2EBA2FA02D0B01B901900140
:1053B0000C01CA01A0011124FF27591B99F0593F84
:1053C00050F4503E68F11A16F040A22F232F342FCC
:1053D0004427585FF3CF469537952795A795F0401A
:1053E0005395C9F77EF41F16BA0B620B730B840B2F
:1053F000BAF09150A1F0FF0FBB1F661F771F881FE7
:10540000C2F70EC0BA0F621F731F841F48F487953E
:1054100077956795B795F7959E3F08F0B0CF939530
:10542000880F08F09927EE0F9795879508950E94A9
:105430002B2A0C946D2B0E94662B58F00E945F2B38
:1054400040F029F45F3F29F00C942F2B51110C945C
:10545000A12B0C94352B0E947E2B68F39923B1F37A
:10546000552391F3951B550BBB27AA27621773078A
:10547000840738F09F5F5F4F220F331F441FAA1F1E
:10548000A9F335D00E2E3AF0E0E832D091505040DA
:10549000E695001CCAF72BD0FE2F29D0660F771F88
:1054A000881FBB1F261737074807AB07B0E809F06E
:1054B000BB0B802DBF01FF2793585F4F3AF09E3FF3
:1054C000510578F00C942F2B0C94A12B5F3FE4F343
:1054D000983ED4F3869577956795B795F7959F5F36
:1054E000C9F7880F911D9695879597F90895E1E082
:1054F000660F771F881FBB1F621773078407BA07E1
:1055000020F0621B730B840BBA0BEE1F88F7E0953B
:10551000089529F416F00C942F2B0C94A02B0C94C6
:10552000352B0E94862BA8F39638A0F707F80F9228
:10553000E8942BE33AEA48EB5FE70E94332C0F92A2
:105540000F920F924DB75EB70F920E94E92BEAE4DB
:10555000F1E00E94382B4F915F91EF91FF91E5951B
:10556000EE1FFF1F49F0FE57E0684427EE0F441F6F
:10557000FA95E1F74195550B0E94B32B0F9007FE6A
:105580000C94A72B08950E94862B88F09F5798F0C3
:10559000B92F9927B751B0F0E1F0660F771F881F38
:1055A000991F1AF0BA95C9F714C0B13091F00E9452
:1055B000A02BB1E008950C94A02B672F782F88279B
:1055C000B85F39F0B93FCCF3869577956795B39579
:1055D000D9F73EF490958095709561957F4F8F4FE8
:1055E0009F4F0895E89409C097FB3EF490958095ED
:1055F000709561957F4F8F4F9F4F9923A9F0F92F99
:1056000096E9BB279395F695879577956795B79516
:10561000F111F8CFFAF4BB0F11F460FF1BC06F5FFC
:105620007F4F8F4F9F4F16C0882311F096E911C00E
:10563000772321F09EE8872F762F05C0662371F02F
:1056400096E8862F70E060E02AF09A95660F771F43
:10565000881FDAF7880F9695879597F9089597F937
:105660009F6780E870E060E008959FEF80EC089508
:10567000DF93CF931F930F93FF92EF92DF927B0103
:105680008C01689406C0DA2EEF010E94302CFE01D6
:10569000E894A5912591359145915591A6F3EF0197
:1056A0000E94C229FE019701A801DA9469F7DF90F0
:1056B000EF90FF900F911F91CF91DF9108950024FB
:1056C0000A941616170618060906089500240A9467
:1056D00012161306140605060895092E0394000CED
:1056E00011F4882352F0BB0F40F4BF2B11F460FF7C
:1056F00004C06F5F7F4F8F4F9F4F089557FD9058A5
:10570000440F551F59F05F3F71F04795880F97FB85
:10571000991F61F09F3F79F087950895121613063F
:105720001406551FF2CF4695F1DF08C0161617066E
:105730001806991FF1CF86957105610508940895A3
:10574000E894BB2766277727CB0197F908959B013B
:10575000AC0160E070E080E89FE30C94172A0C94A1
:105760002F2B0C94922C0E94862BD8F39923C9F3EB
:10577000940F511DA3F39150504094F059F0882399
:1057800032F0660F771F881F91505040C1F79E3F3F
:1057900051052CF7880F911D9695879597F90895D7
:1057A0005F3FACF0983E9CF0BB2786957795679558
:1057B000B79508F4B1609395C1F7BB0F58F711F492
:1057C00060FFE8CF6F5F7F4F8F4F9F4FE3CF0C9409
:1057D000A12BFA01DC01AA0FBB1F9B01AC01BF5733
:1057E00028F4222733274427507820C0B75190F45B
:1057F000AB2F0024469537952795011CA395D2F32E
:10580000002071F0220F331F441FB395DAF30ED03E
:105810000C94AA2961307105A0E88A07B94630F4D2
:105820009B01AC016627772788279078309621F076
:10583000208331834283538308950E94302C0C943B
:105840006D2B0E945F2B38F00E94662B20F0952371
:1058500011F00C942F2B0C94352B11240C94A12BAC
:105860000E947E2B70F3959FC1F3950F50E0551F5A
:10587000629FF001729FBB27F00DB11D639FAA27A5
:10588000F00DB11DAA1F649F6627B00DA11D661FF4
:10589000829F2227B00DA11D621F739FB00DA11D15
:1058A000621F839FA00D611D221F749F3327A00DCF
:1058B000611D231F849F600D211D822F762F6A2F6B
:1058C00011249F5750409AF0F1F088234AF0EE0FD0
:1058D000FF1FBB1F661F771F881F91505040A9F7FD
:1058E0009E3F510580F00C942F2B0C94A12B5F3F11
:1058F000E4F3983ED4F3869577956795B795F79539
:10590000E7959F5FC1F7FE2B880F911D96958795B0
:1059100097F908959F930E94A22C0F9007FCEE5FC9
:105920000C94CB2C9F3F31F0915020F487957795C4
:105930006795B795880F911D9695879597F9089566
:105940000C94352B0E94862BD8F3E894E0E0BB271B
:105950009F57F0F02AED3FE049EC06C0EE0FBB0F79
:10596000661F771F881F28F0B23A62077307840703
:1059700028F0B25A620B730B840BE3959A9572F779
:10598000803830F49A95BB0F661F771F881FD2F7B7
:1059900090480C94942CEF93E0FF07C0A2EA2AED04
:1059A0003FE049EC5FEB0E94C2290E946D2B0F90F3
:1059B000039401FC9058E2E7F1E00C94DF2C9F93F4
:1059C0008F937F936F93FF93EF939B01AC010E94A2
:1059D0001D2CEF91FF910E94382B2F913F914F91F9
:1059E0005F910C941D2CDB018F939F930E94622D7D
:1059F000BF91AF91A29F800D911DA39F900DB29F6B
:105A0000900D11240895AA1BBB1B51E107C0AA1FCA
:105A1000BB1FA617B70710F0A61BB70B881F991F4F
:105A20005A95A9F780959095BC01CD01089597FBF3
:105A3000072E16F4009407D077FD09D00E94032D9D
:105A400007FC05D03EF4909581959F4F0895709581
:105A500061957F4F0895A1E21A2EAA1BBB1BFD0181
:105A60000DC0AA1FBB1FEE1FFF1FA217B307E4073D
:105A7000F50720F0A21BB30BE40BF50B661F771F95
:105A8000881F991F1A9469F7609570958095909575
:105A90009B01AC01BD01CF010895EE0FFF1F0590E2
:105AA000F491E02D0994A29FB001B39FC001A39F80
:105AB000700D811D1124911DB29F700D811D112447
:105AC000911D08950E94532DA59F900DB49F900D98
:105AD000A49F800D911D11240895FC014150504058
